{
  "address": "0xe7f1725E7734CE288F8367e1Bb143E90bb3F0512",
  "abi": [
    {
      "inputs": [
        {
          "internalType": "address",
          "name": "s_priceFeedAddress",
          "type": "address"
        }
      ],
      "stateMutability": "nonpayable",
      "type": "constructor"
    },
    {
      "inputs": [],
      "name": "NotOwner",
      "type": "error"
    },
    {
      "stateMutability": "payable",
      "type": "fallback"
    },
    {
      "inputs": [],
      "name": "MINIMUM_USD",
      "outputs": [
        {
          "internalType": "uint256",
          "name": "",
          "type": "uint256"
        }
      ],
      "stateMutability": "view",
      "type": "function"
    },
    {
      "inputs": [],
      "name": "cheaperWithdraw",
      "outputs": [],
      "stateMutability": "nonpayable",
      "type": "function"
    },
    {
      "inputs": [],
      "name": "fund",
      "outputs": [],
      "stateMutability": "payable",
      "type": "function"
    },
    {
      "inputs": [
        {
          "internalType": "uint256",
          "name": "index",
          "type": "uint256"
        }
      ],
      "name": "getFunder",
      "outputs": [
        {
          "internalType": "address",
          "name": "",
          "type": "address"
        }
      ],
      "stateMutability": "view",
      "type": "function"
    },
    {
      "inputs": [],
      "name": "getVersion",
      "outputs": [
        {
          "internalType": "uint256",
          "name": "",
          "type": "uint256"
        }
      ],
      "stateMutability": "view",
      "type": "function"
    },
    {
      "inputs": [
        {
          "internalType": "address",
          "name": "fundingAddress",
          "type": "address"
        }
      ],
      "name": "gets_addressToAmountFunded",
      "outputs": [
        {
          "internalType": "uint256",
          "name": "",
          "type": "uint256"
        }
      ],
      "stateMutability": "view",
      "type": "function"
    },
    {
      "inputs": [],
      "name": "gets_priceFeed",
      "outputs": [
        {
          "internalType": "address",
          "name": "",
          "type": "address"
        }
      ],
      "stateMutability": "view",
      "type": "function"
    },
    {
      "inputs": [],
      "name": "i_owner",
      "outputs": [
        {
          "internalType": "address",
          "name": "",
          "type": "address"
        }
      ],
      "stateMutability": "view",
      "type": "function"
    },
    {
      "inputs": [
        {
          "internalType": "address",
          "name": "",
          "type": "address"
        }
      ],
      "name": "s_addressToAmountFunded",
      "outputs": [
        {
          "internalType": "uint256",
          "name": "",
          "type": "uint256"
        }
      ],
      "stateMutability": "view",
      "type": "function"
    },
    {
      "inputs": [
        {
          "internalType": "uint256",
          "name": "",
          "type": "uint256"
        }
      ],
      "name": "s_funders",
      "outputs": [
        {
          "internalType": "address",
          "name": "",
          "type": "address"
        }
      ],
      "stateMutability": "view",
      "type": "function"
    },
    {
      "inputs": [],
      "name": "s_priceFeed",
      "outputs": [
        {
          "internalType": "contract AggregatorV3Interface",
          "name": "",
          "type": "address"
        }
      ],
      "stateMutability": "view",
      "type": "function"
    },
    {
      "inputs": [],
      "name": "withdraw",
      "outputs": [],
      "stateMutability": "nonpayable",
      "type": "function"
    },
    {
      "stateMutability": "payable",
      "type": "receive"
    }
  ],
  "transactionHash": "0x22691ab5b9925a3b579540316bb81fcaa8240458f3c3db7a24a2b2def5ae06dd",
  "args": [
    "0x5FbDB2315678afecb367f032d93F642f64180aa3"
  ],
  "numDeployments": 1,
  "solcInputHash": "6bd3ca5886fd06024e1eba9133f39ad1",
  "bytecode": "0x60806040523480156200001157600080fd5b50604051620016603803806200166083398181016040528101906200003791906200012a565b33600260006101000a81548173ffffffffffffffffffffffffffffffffffffffff021916908373ffffffffffffffffffffffffffffffffffffffff16021790555080600360006101000a81548173ffffffffffffffffffffffffffffffffffffffff021916908373ffffffffffffffffffffffffffffffffffffffff160217905550506200015c565b600080fd5b600073ffffffffffffffffffffffffffffffffffffffff82169050919050565b6000620000f282620000c5565b9050919050565b6200010481620000e5565b81146200011057600080fd5b50565b6000815190506200012481620000f9565b92915050565b600060208284031215620001435762000142620000c0565b5b6000620001538482850162000113565b91505092915050565b6114f4806200016c6000396000f3fe6080604052600436106100ab5760003560e01c80636b69a592116100645780636b69a592146101d6578063b2ee0e2a14610201578063b60d42881461023e578063be2693f014610248578063d7b4750c1461025f578063dba6335f1461029c576100ba565b80630d8e6e2c146100c45780630ec3b027146100ef5780631bf6132d1461011a5780631f28d1fe146101575780633ccfd60b1461018257806354861af714610199576100ba565b366100ba576100b86102c7565b005b6100c26102c7565b005b3480156100d057600080fd5b506100d961046b565b6040516100e69190610dc1565b60405180910390f35b3480156100fb57600080fd5b50610104610503565b6040516101119190610e5b565b60405180910390f35b34801561012657600080fd5b50610141600480360381019061013c9190610eb9565b610529565b60405161014e9190610dc1565b60405180910390f35b34801561016357600080fd5b5061016c610541565b6040516101799190610ef5565b60405180910390f35b34801561018e57600080fd5b5061019761056b565b005b3480156101a557600080fd5b506101c060048036038101906101bb9190610f3c565b6107a7565b6040516101cd9190610ef5565b60405180910390f35b3480156101e257600080fd5b506101eb6107e6565b6040516101f89190610dc1565b60405180910390f35b34801561020d57600080fd5b5061022860048036038101906102239190610eb9565b6107f2565b6040516102359190610dc1565b60405180910390f35b6102466102c7565b005b34801561025457600080fd5b5061025d61083a565b005b34801561026b57600080fd5b5061028660048036038101906102819190610f3c565b610ada565b6040516102939190610ef5565b60405180910390f35b3480156102a857600080fd5b506102b1610b22565b6040516102be9190610ef5565b60405180910390f35b670de0b6b3a7640000610305600360009054906101000a900473ffffffffffffffffffffffffffffffffffffffff1634610b4890919063ffffffff16565b1015610346576040517f08c379a000000000000000000000000000000000000000000000000000000000815260040161033d90610fc6565b60405180910390fd5b346000803373ffffffffffffffffffffffffffffffffffffffff1673ffffffffffffffffffffffffffffffffffffffff168152602001908152602001600020819055506104066040518060400160405280601581526020017f74686520616d6f756e742066756e6465642069732000000000000000000000008152506000803373ffffffffffffffffffffffffffffffffffffffff1673ffffffffffffffffffffffffffffffffffffffff16815260200190815260200160002054610b84565b6001339080600181540180825580915050600190039060005260206000200160009091909190916101000a81548173ffffffffffffffffffffffffffffffffffffffff021916908373ffffffffffffffffffffffffffffffffffffffff160217905550565b6000600360009054906101000a900473ffffffffffffffffffffffffffffffffffffffff1673ffffffffffffffffffffffffffffffffffffffff166354fd4d506040518163ffffffff1660e01b8152600401602060405180830381865afa1580156104da573d6000803e3d6000fd5b505050506040513d601f19601f820116820180604052508101906104fe9190610ffb565b905090565b600360009054906101000a900473ffffffffffffffffffffffffffffffffffffffff1681565b60006020528060005260406000206000915090505481565b6000600360009054906101000a900473ffffffffffffffffffffffffffffffffffffffff16905090565b600260009054906101000a900473ffffffffffffffffffffffffffffffffffffffff1673ffffffffffffffffffffffffffffffffffffffff163373ffffffffffffffffffffffffffffffffffffffff16146105f2576040517f30cd747100000000000000000000000000000000000000000000000000000000815260040160405180910390fd5b60005b6001805490508110156106975760006001828154811061061857610617611028565b5b9060005260206000200160009054906101000a900473ffffffffffffffffffffffffffffffffffffffff16905060008060008373ffffffffffffffffffffffffffffffffffffffff1673ffffffffffffffffffffffffffffffffffffffff168152602001908152602001600020819055505080806001019150506105f5565b50600067ffffffffffffffff8111156106b3576106b2611057565b5b6040519080825280602002602001820160405280156106e15781602001602082028036833780820191505090505b50600190805190602001906106f7929190610cf7565b5060003373ffffffffffffffffffffffffffffffffffffffff164760405161071e906110b7565b60006040518083038185875af1925050503d806000811461075b576040519150601f19603f3d011682016040523d82523d6000602084013e610760565b606091505b50509050806107a4576040517f08c379a000000000000000000000000000000000000000000000000000000000815260040161079b90611118565b60405180910390fd5b50565b600181815481106107b757600080fd5b906000526020600020016000915054906101000a900473ffffffffffffffffffffffffffffffffffffffff1681565b670de0b6b3a764000081565b60008060008373ffffffffffffffffffffffffffffffffffffffff1673ffffffffffffffffffffffffffffffffffffffff168152602001908152602001600020549050919050565b600260009054906101000a900473ffffffffffffffffffffffffffffffffffffffff1673ffffffffffffffffffffffffffffffffffffffff163373ffffffffffffffffffffffffffffffffffffffff16146108c1576040517f30cd747100000000000000000000000000000000000000000000000000000000815260040160405180910390fd5b6000600180548060200260200160405190810160405280929190818152602001828054801561094557602002820191906000526020600020905b8160009054906101000a900473ffffffffffffffffffffffffffffffffffffffff1673ffffffffffffffffffffffffffffffffffffffff16815260200190600101908083116108fb575b5050505050905060005b81518110156109c957600082828151811061096d5761096c611028565b5b6020026020010151905060008060008373ffffffffffffffffffffffffffffffffffffffff1673ffffffffffffffffffffffffffffffffffffffff1681526020019081526020016000208190555050808060010191505061094f565b50600067ffffffffffffffff8111156109e5576109e4611057565b5b604051908082528060200260200182016040528015610a135781602001602082028036833780820191505090505b5060019080519060200190610a29929190610cf7565b5060003373ffffffffffffffffffffffffffffffffffffffff1647604051610a50906110b7565b60006040518083038185875af1925050503d8060008114610a8d576040519150601f19603f3d011682016040523d82523d6000602084013e610a92565b606091505b5050905080610ad6576040517f08c379a0000000000000000000000000000000000000000000000000000000008152600401610acd90611184565b60405180910390fd5b5050565b600060018281548110610af057610aef611028565b5b9060005260206000200160009054906101000a900473ffffffffffffffffffffffffffffffffffffffff169050919050565b600260009054906101000a900473ffffffffffffffffffffffffffffffffffffffff1681565b600080610b5483610c20565b90506000670de0b6b3a76400008583610b6d91906111d3565b610b779190611244565b9050809250505092915050565b610c1c8282604051602401610b9a9291906112f4565b6040516020818303038152906040527fb60e72cc000000000000000000000000000000000000000000000000000000007bffffffffffffffffffffffffffffffffffffffffffffffffffffffff19166020820180517bffffffffffffffffffffffffffffffffffffffffffffffffffffffff8381831617835250505050610cb1565b5050565b6000808273ffffffffffffffffffffffffffffffffffffffff1663feaf968c6040518163ffffffff1660e01b815260040160a060405180830381865afa158015610c6e573d6000803e3d6000fd5b505050506040513d601f19601f82011682018060405250810190610c92919061139c565b5050509150506402540be40081610ca99190611417565b915050919050565b610cc881610cc0610ccb610cec565b63ffffffff16565b50565b60006a636f6e736f6c652e6c6f679050600080835160208501845afa505050565b610d81819050919050565b828054828255906000526020600020908101928215610d70579160200282015b82811115610d6f5782518260006101000a81548173ffffffffffffffffffffffffffffffffffffffff021916908373ffffffffffffffffffffffffffffffffffffffff16021790555091602001919060010190610d17565b5b509050610d7d9190610d8b565b5090565b610d8961148f565b565b5b80821115610da4576000816000905550600101610d8c565b5090565b6000819050919050565b610dbb81610da8565b82525050565b6000602082019050610dd66000830184610db2565b92915050565b600073ffffffffffffffffffffffffffffffffffffffff82169050919050565b6000819050919050565b6000610e21610e1c610e1784610ddc565b610dfc565b610ddc565b9050919050565b6000610e3382610e06565b9050919050565b6000610e4582610e28565b9050919050565b610e5581610e3a565b82525050565b6000602082019050610e706000830184610e4c565b92915050565b600080fd5b6000610e8682610ddc565b9050919050565b610e9681610e7b565b8114610ea157600080fd5b50565b600081359050610eb381610e8d565b92915050565b600060208284031215610ecf57610ece610e76565b5b6000610edd84828501610ea4565b91505092915050565b610eef81610e7b565b82525050565b6000602082019050610f0a6000830184610ee6565b92915050565b610f1981610da8565b8114610f2457600080fd5b50565b600081359050610f3681610f10565b92915050565b600060208284031215610f5257610f51610e76565b5b6000610f6084828501610f27565b91505092915050565b600082825260208201905092915050565b7f596f75206e65656420746f207370656e64206d6f726520455448210000000000600082015250565b6000610fb0601b83610f69565b9150610fbb82610f7a565b602082019050919050565b60006020820190508181036000830152610fdf81610fa3565b9050919050565b600081519050610ff581610f10565b92915050565b60006020828403121561101157611010610e76565b5b600061101f84828501610fe6565b91505092915050565b7f4e487b7100000000000000000000000000000000000000000000000000000000600052603260045260246000fd5b7f4e487b7100000000000000000000000000000000000000000000000000000000600052604160045260246000fd5b600081905092915050565b50565b60006110a1600083611086565b91506110ac82611091565b600082019050919050565b60006110c282611094565b9150819050919050565b7f43616c6c206661696c6564000000000000000000000000000000000000000000600082015250565b6000611102600b83610f69565b915061110d826110cc565b602082019050919050565b60006020820190508181036000830152611131816110f5565b9050919050565b7f63616c6c206661696c6564000000000000000000000000000000000000000000600082015250565b600061116e600b83610f69565b915061117982611138565b602082019050919050565b6000602082019050818103600083015261119d81611161565b9050919050565b7f4e487b7100000000000000000000000000000000000000000000000000000000600052601160045260246000fd5b60006111de82610da8565b91506111e983610da8565b92508282026111f781610da8565b9150828204841483151761120e5761120d6111a4565b5b5092915050565b7f4e487b7100000000000000000000000000000000000000000000000000000000600052601260045260246000fd5b600061124f82610da8565b915061125a83610da8565b92508261126a57611269611215565b5b828204905092915050565b600081519050919050565b60005b8381101561129e578082015181840152602081019050611283565b60008484015250505050565b6000601f19601f8301169050919050565b60006112c682611275565b6112d08185610f69565b93506112e0818560208601611280565b6112e9816112aa565b840191505092915050565b6000604082019050818103600083015261130e81856112bb565b905061131d6020830184610db2565b9392505050565b600069ffffffffffffffffffff82169050919050565b61134381611324565b811461134e57600080fd5b50565b6000815190506113608161133a565b92915050565b6000819050919050565b61137981611366565b811461138457600080fd5b50565b60008151905061139681611370565b92915050565b600080600080600060a086880312156113b8576113b7610e76565b5b60006113c688828901611351565b95505060206113d788828901611387565b94505060406113e888828901610fe6565b93505060606113f988828901610fe6565b925050608061140a88828901611351565b9150509295509295909350565b600061142282611366565b915061142d83611366565b925082820261143b81611366565b91507f80000000000000000000000000000000000000000000000000000000000000008414600084121615611473576114726111a4565b5b8282058414831517611488576114876111a4565b5b5092915050565b7f4e487b7100000000000000000000000000000000000000000000000000000000600052605160045260246000fdfea2646970667358221220528c3f4f6f78f89ed14bca65da725982e3fa802578c7161f18e5fc9b0cd0b25964736f6c63430008180033",
  "devdoc": {
    "kind": "dev",
    "methods": {},
    "version": 1
  },
  "userdoc": {
    "kind": "user",
    "methods": {},
    "version": 1
  },
  "storageLayout": {
    "storage": [
      {
        "astId": 59,
        "contract": "contracts/FundMe.sol:FundMe",
        "label": "s_addressToAmountFunded",
        "offset": 0,
        "slot": "0",
        "type": "t_mapping(t_address,t_uint256)"
      },
      {
        "astId": 62,
        "contract": "contracts/FundMe.sol:FundMe",
        "label": "s_funders",
        "offset": 0,
        "slot": "1",
        "type": "t_array(t_address)dyn_storage"
      },
      {
        "astId": 64,
        "contract": "contracts/FundMe.sol:FundMe",
        "label": "i_owner",
        "offset": 0,
        "slot": "2",
        "type": "t_address"
      },
      {
        "astId": 74,
        "contract": "contracts/FundMe.sol:FundMe",
        "label": "s_priceFeed",
        "offset": 0,
        "slot": "3",
        "type": "t_contract(AggregatorV3Interface)45"
      }
    ],
    "types": {
      "t_address": {
        "encoding": "inplace",
        "label": "address",
        "numberOfBytes": "20"
      },
      "t_array(t_address)dyn_storage": {
        "base": "t_address",
        "encoding": "dynamic_array",
        "label": "address[]",
        "numberOfBytes": "32"
      },
      "t_contract(AggregatorV3Interface)45": {
        "encoding": "inplace",
        "label": "contract AggregatorV3Interface",
        "numberOfBytes": "20"
      },
      "t_mapping(t_address,t_uint256)": {
        "encoding": "mapping",
        "key": "t_address",
        "label": "mapping(address => uint256)",
        "numberOfBytes": "32",
        "value": "t_uint256"
      },
      "t_uint256": {
        "encoding": "inplace",
        "label": "uint256",
        "numberOfBytes": "32"
      }
    }
  }
}