{
  "address": "0x22Fce44C7F9ef5DF6954883fF8820623Bf649a0e",
  "abi": [
    {
      "inputs": [
        {
          "internalType": "address",
          "name": "s_priceFeedAddress",
          "type": "address"
        }
      ],
      "stateMutability": "nonpayable",
      "type": "constructor"
    },
    {
      "inputs": [],
      "name": "NotOwner",
      "type": "error"
    },
    {
      "stateMutability": "payable",
      "type": "fallback"
    },
    {
      "inputs": [],
      "name": "MINIMUM_USD",
      "outputs": [
        {
          "internalType": "uint256",
          "name": "",
          "type": "uint256"
        }
      ],
      "stateMutability": "view",
      "type": "function"
    },
    {
      "inputs": [],
      "name": "cheaperWithdraw",
      "outputs": [],
      "stateMutability": "nonpayable",
      "type": "function"
    },
    {
      "inputs": [],
      "name": "fund",
      "outputs": [],
      "stateMutability": "payable",
      "type": "function"
    },
    {
      "inputs": [
        {
          "internalType": "uint256",
          "name": "index",
          "type": "uint256"
        }
      ],
      "name": "getFunder",
      "outputs": [
        {
          "internalType": "address",
          "name": "",
          "type": "address"
        }
      ],
      "stateMutability": "view",
      "type": "function"
    },
    {
      "inputs": [],
      "name": "getVersion",
      "outputs": [
        {
          "internalType": "uint256",
          "name": "",
          "type": "uint256"
        }
      ],
      "stateMutability": "view",
      "type": "function"
    },
    {
      "inputs": [
        {
          "internalType": "address",
          "name": "fundingAddress",
          "type": "address"
        }
      ],
      "name": "gets_addressToAmountFunded",
      "outputs": [
        {
          "internalType": "uint256",
          "name": "",
          "type": "uint256"
        }
      ],
      "stateMutability": "view",
      "type": "function"
    },
    {
      "inputs": [],
      "name": "gets_priceFeed",
      "outputs": [
        {
          "internalType": "address",
          "name": "",
          "type": "address"
        }
      ],
      "stateMutability": "view",
      "type": "function"
    },
    {
      "inputs": [],
      "name": "i_owner",
      "outputs": [
        {
          "internalType": "address",
          "name": "",
          "type": "address"
        }
      ],
      "stateMutability": "view",
      "type": "function"
    },
    {
      "inputs": [
        {
          "internalType": "address",
          "name": "",
          "type": "address"
        }
      ],
      "name": "s_addressToAmountFunded",
      "outputs": [
        {
          "internalType": "uint256",
          "name": "",
          "type": "uint256"
        }
      ],
      "stateMutability": "view",
      "type": "function"
    },
    {
      "inputs": [
        {
          "internalType": "uint256",
          "name": "",
          "type": "uint256"
        }
      ],
      "name": "s_funders",
      "outputs": [
        {
          "internalType": "address",
          "name": "",
          "type": "address"
        }
      ],
      "stateMutability": "view",
      "type": "function"
    },
    {
      "inputs": [],
      "name": "s_priceFeed",
      "outputs": [
        {
          "internalType": "contract AggregatorV3Interface",
          "name": "",
          "type": "address"
        }
      ],
      "stateMutability": "view",
      "type": "function"
    },
    {
      "inputs": [],
      "name": "withdraw",
      "outputs": [],
      "stateMutability": "nonpayable",
      "type": "function"
    },
    {
      "stateMutability": "payable",
      "type": "receive"
    }
  ],
  "transactionHash": "0x4c53b1570e1d7388c10cc5f7bd777ea79330db34eefbea3be0403fd53b69c6f2",
  "args": [
    "0x694AA1769357215DE4FAC081bf1f309aDC325306"
  ],
  "numDeployments": 6,
  "solcInputHash": "8eb6207364f214a96f9803c369d26725",
  "bytecode": "0x60806040523480156200001157600080fd5b50604051620016623803806200166283398181016040528101906200003791906200012a565b33600260006101000a81548173ffffffffffffffffffffffffffffffffffffffff021916908373ffffffffffffffffffffffffffffffffffffffff16021790555080600360006101000a81548173ffffffffffffffffffffffffffffffffffffffff021916908373ffffffffffffffffffffffffffffffffffffffff160217905550506200015c565b600080fd5b600073ffffffffffffffffffffffffffffffffffffffff82169050919050565b6000620000f282620000c5565b9050919050565b6200010481620000e5565b81146200011057600080fd5b50565b6000815190506200012481620000f9565b92915050565b600060208284031215620001435762000142620000c0565b5b6000620001538482850162000113565b91505092915050565b6114f6806200016c6000396000f3fe6080604052600436106100ab5760003560e01c80636b69a592116100645780636b69a592146101d6578063b2ee0e2a14610201578063b60d42881461023e578063be2693f014610248578063d7b4750c1461025f578063dba6335f1461029c576100ba565b80630d8e6e2c146100c45780630ec3b027146100ef5780631bf6132d1461011a5780631f28d1fe146101575780633ccfd60b1461018257806354861af714610199576100ba565b366100ba576100b86102c7565b005b6100c26102c7565b005b3480156100d057600080fd5b506100d961046c565b6040516100e69190610dc3565b60405180910390f35b3480156100fb57600080fd5b50610104610504565b6040516101119190610e5d565b60405180910390f35b34801561012657600080fd5b50610141600480360381019061013c9190610ebb565b61052a565b60405161014e9190610dc3565b60405180910390f35b34801561016357600080fd5b5061016c610542565b6040516101799190610ef7565b60405180910390f35b34801561018e57600080fd5b5061019761056c565b005b3480156101a557600080fd5b506101c060048036038101906101bb9190610f3e565b6107a8565b6040516101cd9190610ef7565b60405180910390f35b3480156101e257600080fd5b506101eb6107e7565b6040516101f89190610dc3565b60405180910390f35b34801561020d57600080fd5b5061022860048036038101906102239190610ebb565b6107f4565b6040516102359190610dc3565b60405180910390f35b6102466102c7565b005b34801561025457600080fd5b5061025d61083c565b005b34801561026b57600080fd5b5061028660048036038101906102819190610f3e565b610adc565b6040516102939190610ef7565b60405180910390f35b3480156102a857600080fd5b506102b1610b24565b6040516102be9190610ef7565b60405180910390f35b6802b5e3af16b1880000610306600360009054906101000a900473ffffffffffffffffffffffffffffffffffffffff1634610b4a90919063ffffffff16565b1015610347576040517f08c379a000000000000000000000000000000000000000000000000000000000815260040161033e90610fc8565b60405180910390fd5b346000803373ffffffffffffffffffffffffffffffffffffffff1673ffffffffffffffffffffffffffffffffffffffff168152602001908152602001600020819055506104076040518060400160405280601581526020017f74686520616d6f756e742066756e6465642069732000000000000000000000008152506000803373ffffffffffffffffffffffffffffffffffffffff1673ffffffffffffffffffffffffffffffffffffffff16815260200190815260200160002054610b86565b6001339080600181540180825580915050600190039060005260206000200160009091909190916101000a81548173ffffffffffffffffffffffffffffffffffffffff021916908373ffffffffffffffffffffffffffffffffffffffff160217905550565b6000600360009054906101000a900473ffffffffffffffffffffffffffffffffffffffff1673ffffffffffffffffffffffffffffffffffffffff166354fd4d506040518163ffffffff1660e01b8152600401602060405180830381865afa1580156104db573d6000803e3d6000fd5b505050506040513d601f19601f820116820180604052508101906104ff9190610ffd565b905090565b600360009054906101000a900473ffffffffffffffffffffffffffffffffffffffff1681565b60006020528060005260406000206000915090505481565b6000600360009054906101000a900473ffffffffffffffffffffffffffffffffffffffff16905090565b600260009054906101000a900473ffffffffffffffffffffffffffffffffffffffff1673ffffffffffffffffffffffffffffffffffffffff163373ffffffffffffffffffffffffffffffffffffffff16146105f3576040517f30cd747100000000000000000000000000000000000000000000000000000000815260040160405180910390fd5b60005b600180549050811015610698576000600182815481106106195761061861102a565b5b9060005260206000200160009054906101000a900473ffffffffffffffffffffffffffffffffffffffff16905060008060008373ffffffffffffffffffffffffffffffffffffffff1673ffffffffffffffffffffffffffffffffffffffff168152602001908152602001600020819055505080806001019150506105f6565b50600067ffffffffffffffff8111156106b4576106b3611059565b5b6040519080825280602002602001820160405280156106e25781602001602082028036833780820191505090505b50600190805190602001906106f8929190610cf9565b5060003373ffffffffffffffffffffffffffffffffffffffff164760405161071f906110b9565b60006040518083038185875af1925050503d806000811461075c576040519150601f19603f3d011682016040523d82523d6000602084013e610761565b606091505b50509050806107a5576040517f08c379a000000000000000000000000000000000000000000000000000000000815260040161079c9061111a565b60405180910390fd5b50565b600181815481106107b857600080fd5b906000526020600020016000915054906101000a900473ffffffffffffffffffffffffffffffffffffffff1681565b6802b5e3af16b188000081565b60008060008373ffffffffffffffffffffffffffffffffffffffff1673ffffffffffffffffffffffffffffffffffffffff168152602001908152602001600020549050919050565b600260009054906101000a900473ffffffffffffffffffffffffffffffffffffffff1673ffffffffffffffffffffffffffffffffffffffff163373ffffffffffffffffffffffffffffffffffffffff16146108c3576040517f30cd747100000000000000000000000000000000000000000000000000000000815260040160405180910390fd5b6000600180548060200260200160405190810160405280929190818152602001828054801561094757602002820191906000526020600020905b8160009054906101000a900473ffffffffffffffffffffffffffffffffffffffff1673ffffffffffffffffffffffffffffffffffffffff16815260200190600101908083116108fd575b5050505050905060005b81518110156109cb57600082828151811061096f5761096e61102a565b5b6020026020010151905060008060008373ffffffffffffffffffffffffffffffffffffffff1673ffffffffffffffffffffffffffffffffffffffff16815260200190815260200160002081905550508080600101915050610951565b50600067ffffffffffffffff8111156109e7576109e6611059565b5b604051908082528060200260200182016040528015610a155781602001602082028036833780820191505090505b5060019080519060200190610a2b929190610cf9565b5060003373ffffffffffffffffffffffffffffffffffffffff1647604051610a52906110b9565b60006040518083038185875af1925050503d8060008114610a8f576040519150601f19603f3d011682016040523d82523d6000602084013e610a94565b606091505b5050905080610ad8576040517f08c379a0000000000000000000000000000000000000000000000000000000008152600401610acf90611186565b60405180910390fd5b5050565b600060018281548110610af257610af161102a565b5b9060005260206000200160009054906101000a900473ffffffffffffffffffffffffffffffffffffffff169050919050565b600260009054906101000a900473ffffffffffffffffffffffffffffffffffffffff1681565b600080610b5683610c22565b90506000670de0b6b3a76400008583610b6f91906111d5565b610b799190611246565b9050809250505092915050565b610c1e8282604051602401610b9c9291906112f6565b6040516020818303038152906040527fb60e72cc000000000000000000000000000000000000000000000000000000007bffffffffffffffffffffffffffffffffffffffffffffffffffffffff19166020820180517bffffffffffffffffffffffffffffffffffffffffffffffffffffffff8381831617835250505050610cb3565b5050565b6000808273ffffffffffffffffffffffffffffffffffffffff1663feaf968c6040518163ffffffff1660e01b815260040160a060405180830381865afa158015610c70573d6000803e3d6000fd5b505050506040513d601f19601f82011682018060405250810190610c94919061139e565b5050509150506402540be40081610cab9190611419565b915050919050565b610cca81610cc2610ccd610cee565b63ffffffff16565b50565b60006a636f6e736f6c652e6c6f679050600080835160208501845afa505050565b610d83819050919050565b828054828255906000526020600020908101928215610d72579160200282015b82811115610d715782518260006101000a81548173ffffffffffffffffffffffffffffffffffffffff021916908373ffffffffffffffffffffffffffffffffffffffff16021790555091602001919060010190610d19565b5b509050610d7f9190610d8d565b5090565b610d8b611491565b565b5b80821115610da6576000816000905550600101610d8e565b5090565b6000819050919050565b610dbd81610daa565b82525050565b6000602082019050610dd86000830184610db4565b92915050565b600073ffffffffffffffffffffffffffffffffffffffff82169050919050565b6000819050919050565b6000610e23610e1e610e1984610dde565b610dfe565b610dde565b9050919050565b6000610e3582610e08565b9050919050565b6000610e4782610e2a565b9050919050565b610e5781610e3c565b82525050565b6000602082019050610e726000830184610e4e565b92915050565b600080fd5b6000610e8882610dde565b9050919050565b610e9881610e7d565b8114610ea357600080fd5b50565b600081359050610eb581610e8f565b92915050565b600060208284031215610ed157610ed0610e78565b5b6000610edf84828501610ea6565b91505092915050565b610ef181610e7d565b82525050565b6000602082019050610f0c6000830184610ee8565b92915050565b610f1b81610daa565b8114610f2657600080fd5b50565b600081359050610f3881610f12565b92915050565b600060208284031215610f5457610f53610e78565b5b6000610f6284828501610f29565b91505092915050565b600082825260208201905092915050565b7f596f75206e65656420746f207370656e64206d6f726520455448210000000000600082015250565b6000610fb2601b83610f6b565b9150610fbd82610f7c565b602082019050919050565b60006020820190508181036000830152610fe181610fa5565b9050919050565b600081519050610ff781610f12565b92915050565b60006020828403121561101357611012610e78565b5b600061102184828501610fe8565b91505092915050565b7f4e487b7100000000000000000000000000000000000000000000000000000000600052603260045260246000fd5b7f4e487b7100000000000000000000000000000000000000000000000000000000600052604160045260246000fd5b600081905092915050565b50565b60006110a3600083611088565b91506110ae82611093565b600082019050919050565b60006110c482611096565b9150819050919050565b7f43616c6c206661696c6564000000000000000000000000000000000000000000600082015250565b6000611104600b83610f6b565b915061110f826110ce565b602082019050919050565b60006020820190508181036000830152611133816110f7565b9050919050565b7f63616c6c206661696c6564000000000000000000000000000000000000000000600082015250565b6000611170600b83610f6b565b915061117b8261113a565b602082019050919050565b6000602082019050818103600083015261119f81611163565b9050919050565b7f4e487b7100000000000000000000000000000000000000000000000000000000600052601160045260246000fd5b60006111e082610daa565b91506111eb83610daa565b92508282026111f981610daa565b915082820484148315176112105761120f6111a6565b5b5092915050565b7f4e487b7100000000000000000000000000000000000000000000000000000000600052601260045260246000fd5b600061125182610daa565b915061125c83610daa565b92508261126c5761126b611217565b5b828204905092915050565b600081519050919050565b60005b838110156112a0578082015181840152602081019050611285565b60008484015250505050565b6000601f19601f8301169050919050565b60006112c882611277565b6112d28185610f6b565b93506112e2818560208601611282565b6112eb816112ac565b840191505092915050565b6000604082019050818103600083015261131081856112bd565b905061131f6020830184610db4565b9392505050565b600069ffffffffffffffffffff82169050919050565b61134581611326565b811461135057600080fd5b50565b6000815190506113628161133c565b92915050565b6000819050919050565b61137b81611368565b811461138657600080fd5b50565b60008151905061139881611372565b92915050565b600080600080600060a086880312156113ba576113b9610e78565b5b60006113c888828901611353565b95505060206113d988828901611389565b94505060406113ea88828901610fe8565b93505060606113fb88828901610fe8565b925050608061140c88828901611353565b9150509295509295909350565b600061142482611368565b915061142f83611368565b925082820261143d81611368565b91507f80000000000000000000000000000000000000000000000000000000000000008414600084121615611475576114746111a6565b5b828205841483151761148a576114896111a6565b5b5092915050565b7f4e487b7100000000000000000000000000000000000000000000000000000000600052605160045260246000fdfea2646970667358221220bcf7435625db4c9a2ede9d71167fdd5b804b9ac23acfd6b41d254f989e1b0d7d64736f6c63430008180033",
  "devdoc": {
    "kind": "dev",
    "methods": {},
    "version": 1
  },
  "userdoc": {
    "kind": "user",
    "methods": {},
    "version": 1
  },
  "storageLayout": {
    "storage": [
      {
        "astId": 59,
        "contract": "contracts/FundMe.sol:FundMe",
        "label": "s_addressToAmountFunded",
        "offset": 0,
        "slot": "0",
        "type": "t_mapping(t_address,t_uint256)"
      },
      {
        "astId": 62,
        "contract": "contracts/FundMe.sol:FundMe",
        "label": "s_funders",
        "offset": 0,
        "slot": "1",
        "type": "t_array(t_address)dyn_storage"
      },
      {
        "astId": 64,
        "contract": "contracts/FundMe.sol:FundMe",
        "label": "i_owner",
        "offset": 0,
        "slot": "2",
        "type": "t_address"
      },
      {
        "astId": 74,
        "contract": "contracts/FundMe.sol:FundMe",
        "label": "s_priceFeed",
        "offset": 0,
        "slot": "3",
        "type": "t_contract(AggregatorV3Interface)45"
      }
    ],
    "types": {
      "t_address": {
        "encoding": "inplace",
        "label": "address",
        "numberOfBytes": "20"
      },
      "t_array(t_address)dyn_storage": {
        "base": "t_address",
        "encoding": "dynamic_array",
        "label": "address[]",
        "numberOfBytes": "32"
      },
      "t_contract(AggregatorV3Interface)45": {
        "encoding": "inplace",
        "label": "contract AggregatorV3Interface",
        "numberOfBytes": "20"
      },
      "t_mapping(t_address,t_uint256)": {
        "encoding": "mapping",
        "key": "t_address",
        "label": "mapping(address => uint256)",
        "numberOfBytes": "32",
        "value": "t_uint256"
      },
      "t_uint256": {
        "encoding": "inplace",
        "label": "uint256",
        "numberOfBytes": "32"
      }
    }
  }
}